:100000000C94D6030C9407040C9407040C94070476
:100010000C9407040C9407040C9407040C94070434
:100020000C9407040C9407040C9407040C94070424
:100030000C9407040C9407040C9407040C94070414
:100040000C9407040C9407040C9407040C94070404
:100050000C9407040C9407040C9407040C94430DAF
:100060000C9407040C94B70D0C948D0D0C9407049C
:100070000C9407040C9407040C9407040C940704D4
:100080000C9407040C9407040C9407040C940704C4
:100090000C9407040C9407040C9407040C940704B4
:1000A0000C9407040C9407040C9407040C940704A4
:1000B0000C9407040C9407040C9407040C94070494
:1000C0000C9407040C9407040C9407040C94070484
:1000D0000C9407040C9407040C9407040C94070474
:1000E0000C9407040C947E0B0C947A0B0C947608F9
:1000F0000C94EB040C9427050C9402070C9418053F
:100100000C9449050C94FA060C942C090C94810566
:100110000C94ED0D0C94FE060C94B2060C947A0728
:100120000C9499070C943B050C94E9052E2E646FF2
:100130006E65004C6F616420436F6E666967206670
:10014000726F6D204F66667365743A0020392C3CDF
:1001500053686F7720436F6E6669673E20202020CA
:100160002020202020202D20536C6F7420302D342F
:100170000020382C3C4C6F61642044656661756CCE
:1001800074733E202020202020202D20466163749F
:100190006F72792064656661756C7473206C61643C
:1001A000656E0020372C3C4C6F616420436F6E6697
:1001B00069673E202020202020202020202D205351
:1001C0006C6F7420302D342C20506172616D657419
:1001D0006572206C6164656E0020362C3C5361763C
:1001E0006520436F6E6669673E2020202020202016
:1001F0002020202D20536C6F7420302D342050612E
:1002000072616D657465722073706569636865728B
:100210006E00232323232323232323232323232386
:10022000232323232323232323232323232323239E
:10023000232323232323232323232323232323238E
:1002400023232323232323232300232053617665A1
:1002500067616D6520302073696E64206469652074
:1002600052657365742D44656661756C74732021E5
:10027000212020202020202020202020202020207D
:100280002300232323232323232323232323232361
:10029000232323232323232323232323232323232E
:1002A000232323232323232323232323232323231E
:1002B0002323232323232323230020352C3C73656E
:1002C0007443656C6C6D6178446966663E3B2020C2
:1002D0002020202D206D61782E20446966662E2016
:1002E000426174745B6D565D0020342C3C73657400
:1002F00043656C6C48696768566F6C74733E3B204D
:1003000020202D204F56502045696E7A656C7A6505
:100310006C6C655B6D565D0020332C3C73657443DB
:10032000656C6C4C6F77566F6C74733E3B2020206D
:10033000202D205556502045696E7A656C7A656C83
:100340006C655B6D565D200020322C3C73657441FA
:10035000766753616D706C65733E3B2020202020D2
:10036000202D2073616D706C65732066C3BC722094
:100370006D697474656C77657274652070726F2036
:100380006B616E616C2C20312E2E3430393600209A
:10039000312C3C736574506572696F646963526592
:1003A000706F72743E3B20202D204C6976652D4481
:1003B0006174656E205370616D2C20302E2E3130AB
:1003C0003A20757064617465732F73656300203023
:1003D0003B20202020202020202020202020202002
:1003E000202020202020202D206469657365204175
:1003F000757367616265002323232323232323234B
:1004000023232323232323232323232323232323BC
:1004100023232323232323232323232323232323AC
:1004200023232323232323232323232323230023BF
:100430002054656D70657261747572656E20696EA9
:100440002047726164206D697420566F727A656905
:100450006368656E2020202020202020202020207E
:100460002020202023002320417267756D656E7463
:1004700020302F2D3120207A6569677420576572EE
:1004800074206F686E652041656E646572756E6775
:1004900020616E20202020202020202300232323E1
:1004A000232323232323232323232323232323231C
:1004B000232323232323232323232323232323230C
:1004C00023232323232323232323232323232323FC
:1004D000232323230073657443656C6C4C6F77563C
:1004E0006F6C74733A0073657443656C6C4869672C
:1004F00068566F6C74733A0073657443656C6C6D09
:100500006178446966663A00736574417667536141
:100510006D706C65733A0073657441766753616DF5
:10052000706C65733A00666C61675F506572696FE5
:100530006469635265706F7274456E61626C653A8E
:10054000002E2E646F6E650062797465206F66669A
:100550007365743A200062797465732920005361D1
:10056000766520436F6E6669672028004C6F616472
:100570002044656661756C74732066726F6D2050DF
:10058000726F676D656D3A00626174742D3E7361C0
:100590006D706C65636F756E7400626174742D3E6E
:1005A00072657346616B746F725B43555252454E70
:1005B000545F4F55545D3A00626174742D3E72650C
:1005C0007346616B746F725B43555252454E545F74
:1005D000494E5D3A00626174742D3E7265734661E6
:1005E0006B746F725B43454C4C30385D3A0062610E
:1005F00074742D3E72657346616B746F725B434514
:100600004C4C30375D3A00626174742D3E726573F4
:1006100046616B746F725B43454C4C30365D3A00FB
:10062000626174742D3E72657346616B746F725BA8
:1006300043454C4C30355D3A00626174742D3E7216
:10064000657346616B746F725B43454C4C30345D2F
:100650003A00626174742D3E72657346616B746F0B
:10066000725B43454C4C30335D3A00626174742DCB
:100670003E72657346616B746F725B43454C4C30E0
:10068000325D3A00626174742D3E72657346616B2F
:10069000746F725B43454C4C30315D3A006261745B
:1006A000742D3E63656C6C5F6D61785F646966662E
:1006B0003A00626174742D3E63656C6C5F6D6178A5
:1006C0005F74656D70657261747572653A00626120
:1006D00074742D3E63656C6C5F6D696E5F74656DDF
:1006E00070657261747572653A00626174742D3E52
:1006F00063656C6C5F6D61785F766F6C7461676564
:100700003A00626174742D3E63656C6C5F6D696E56
:100710005F766F6C746167653A00626174742D3E38
:1007200063656C6C636F756E743A00656E61626CC4
:10073000653A00646966662063656C6C3A006869B6
:1007400067686573742043656C6C3A006C6F7765FD
:1007500073742043656C6C3A0053616D706C656313
:100760006F756E743A007361666567616D652062CE
:10077000797465733A00212121205479706520270E
:10078000303B2720666F722068656C702021212124
:10079000002D2D2D5245504F52543A204C4F474F6B
:1007A000424A454B542D2D2D0000ED0D11241FBE46
:1007B000CFEFD1E2DEBFCDBF00E00CBF12E0A0E082
:1007C000B2E0E2E0FBE200E00BBF02C007900D9256
:1007D000A433B107D9F726E0A4E3B2E001C01D922B
:1007E000A837B207E1F713E0C6EDD3E000E006C09A
:1007F00021970109802FFE010E945814C53DD107A1
:1008000080E00807A9F70E94620E0C947F150C94F3
:100810000000AC011092C103909111068091100666
:10082000FA01BF01641B750B2091C1033081309325
:10083000C103931304C0921302C01092C10330810C
:10084000311104C0921721F0CB0108953817D1F36C
:100850003196E7CF0F931F93FB0140815181628155
:1008600073818A019B010F5F1F4F2F4F3F4F008302
:1008700011832283338345525D4FDA019C9340817B
:100880005181628173818A019B010F5F1F4F2F4F3E
:100890003F4F008311832283338345525D4FFA011A
:1008A00080831F910F910895CF92DF92EF92FF9274
:1008B0009B01FA0140815181628173816A017B0150
:1008C000AFEFCA1ADA0AEA0AFA0AC082D182E282D1
:1008D000F38245525D4FDA019C93408151816281E0
:1008E00073816A017B01BFEFCB1ADB0AEB0AFB0ABB
:1008F000C082D182E282F38245525D4FDA018C934D
:1009000080819181A281B381AC01BD014F5F5F4FB6
:100910006F4F7F4F408351836283738385529D4F16
:10092000DC013C9380819181A281B381AC01BD0146
:100930004F5F5F4F6F4F7F4F40835183628373835D
:1009400085529D4FFC012083FF90EF90DF90CF9068
:100950000895FC014081518162817381DA01A552C1
:10096000BD4F9C91DA01A452BD4F8C914E5F5F4FF9
:100970006F4F7F4F408351836283738308950F933A
:100980001F93FC010081118122813381D801A5527E
:10099000BD4F6C9170E090E080E0962F882777271C
:1009A0006627D801A252BD4F4C91642BD801A452A6
:1009B000BD4F4C91842BD801A352BD4F4C91742B49
:1009C0000C5F1F4F2F4F3F4F0083118322833383D0
:1009D0001F910F910895AF92BF92CF92DF92EF9245
:1009E000FF920F931F93CF93DF936C017B018B01D9
:1009F000040F151FEB015E01AE18BF08C017D10729
:100A000059F06991D601ED91FC910190F081E02DB2
:100A1000C6011995892B79F7C501DF91CF911F91F7
:100A20000F91FF90EF90DF90CF90BF90AF9008951F
:100A3000FC01538D448D252F30E0842F90E0821BE4
:100A4000930B541710F0CF96089501970895FC0169
:100A5000918D828D981761F0A28DAE0FBF2FB11DC1
:100A60005D968C91928D9F5F9F73928F90E0089519
:100A70008FEF9FEF0895FC01918D828D981731F0D3
:100A8000828DE80FF11D858D90E008958FEF9FEF27
:100A90000895FC01918D228D892F90E0805C9F4FFD
:100AA000821B91098F73992708958FE193E00E942B
:100AB000490521E0892B09F420E0822F0895FC01EB
:100AC000A48DA80FB92FB11DA35ABF4F2C91848DAF
:100AD00090E001968F739927848FA689B7892C930C
:100AE000A089B1898C91837080648C93938D848D5F
:100AF000981306C00288F389E02D80818F7D808362
:100B00000895EF92FF920F931F93CF93DF93EC0121
:100B100081E0888F9B8D8C8D98131AC0E889F989A4
:100B2000808185FF15C09FB7F894EE89FF896083A7
:100B3000E889F98980818370806480839FBF81E028
:100B400090E0DF91CF911F910F91FF90EF9008956A
:100B5000F62E0B8D10E00F5F1F4F0F731127E02E45
:100B60008C8D8E110CC00FB607FCFACFE889F9897D
:100B7000808185FFF5CFCE010E945F05F1CFEB8D1F
:100B8000EC0FFD2FF11DE35AFF4FF0829FB7F89451
:100B90000B8FEA89FB8980818062CFCF0F931F93EF
:100BA000CF93DF938C01D0E0C0E0F801EC0FFD1F84
:100BB0006491662341F08FE193E00E948105892BC7
:100BC00011F02196F2CFCE01DF91CF911F910F91BD
:100BD0000895CF93DF93EC01888D8823B9F0AA891B
:100BE000BB89E889F9898C9185FD03C0808186FDE8
:100BF0000DC00FB607FCF7CF8C9185FFF2CF808137
:100C000085FFEDCFCE010E945F05E9CFDF91CF9147
:100C1000089580E090E0892B29F00E94550581110C
:100C20000E94000080E090E0892B49F080E090E095
:100C3000892B29F00E94000081110E94000080E0B1
:100C400090E0892B49F080E090E0892B29F00E9408
:100C5000000081110E94000080E090E0892B49F0A3
:100C600080E090E0892B29F00E94000081110C9413
:100C7000000008950F931F93CF93DF938091050693
:100C8000882309F449C0D0E0C0E0813029F482E033
:100C900080930506C5ECD3E080910606882341F1D8
:100CA000209721F4C0910A06D0910B068E01CE0147
:100CB0000E940904892B29F42196F8018081811171
:100CC000F5CFF8018081882321F1C8010E94090431
:100CD000F801E80FF91F8081882311F01082319606
:100CE000F0930B06E0930A0610930906009308069A
:100CF0008091080690910906009771F021E02093F9
:100D0000060620930706DF91CF911F910F910C9457
:100D1000851210E000E0E8CF1092070690E080E036
:100D2000DF91CF911F910F910895FC010190002058
:100D3000E9F73197AF01481B590BBC018FE193E0F4
:100D40000C94EB0486E192E00C949506CF93DF932C
:100D50000E94CE05EC010E94A2068C0F9D1FDF9120
:100D6000CF91089510923502109234028DE994E0EB
:100D70000E94A60686E694E00E94A6068FE294E012
:100D80000E94A60687EF93E00E94A6068EEC93E0F1
:100D90000E94A6068FE893E00E94A60688E493E0EE
:100DA0000E94A60688E193E00E94A60689EE92E0E2
:100DB0000E94A6068AEB92E00E94A60682E892E0D4
:100DC0000E94A6068AE492E00E94A60682E192E0D2
:100DD0000E94A60689ED91E00E94A60683EA91E0B2
:100DE0000E94A60681E791E00E94A6068CE491E0AD
:100DF0000C94A60685ED94E00C94A60686EE94E08D
:100E00000C94A60688EF94E00C94A6068F929F920D
:100E1000AF92BF920F931F93CF93DF93CDB7DEB7FF
:100E2000A1970FB6F894DEBF0FBECDBF19A2423016
:100E300008F44AE08E010F5D1F4F842E912CB12CD7
:100E4000A12CA50194010E941714E62FB901CA0133
:100E5000EA30F4F4E05DD801EE938D01232B242BCE
:100E6000252B79F790E080E0109719F0CD010E94D2
:100E70009506A1960FB6F894DEBF0FBECDBFDF91E9
:100E8000CF911F910F91BF90AF909F908F90089539
:100E9000E95CE1CFCF92DF92EF92FF92CF93DF93A5
:100EA0006C01990FEE08FF08F7FE1DC06DE28FE19F
:100EB00093E00E948105EC0166277727CB016C192E
:100EC0007D098E099F094AE00E940607C80FD91FB5
:100ED0000E94A2068C0F9D1FDF91CF91FF90EF9093
:100EE000DF90CF9008954AE0C701B6010E9406073F
:100EF000EC01EECFCF93DF930E943A06EC01909382
:100F000035028093340286E295E00E94CE05CE0140
:100F1000DF91CF910C944A07CF93DF934AE00E9470
:100F20000607EC010E94A2068C0F9D1FDF91CF9156
:100F300008950E943A06009771F488E095E00E94B7
:100F4000CE0560917E0270917F0280918002909127
:100F500081020C948C07092E000CAA0BBB0B80930A
:100F60007E0290937F02A0938002B093810287E17A
:100F700095E0E5CF8F929F92AF92BF92CF92DF9292
:100F8000EF92FF921F93CF93DF936B017C01AC0133
:100F90009B010E947A158823A9F089E192E00E94C2
:100FA0009506EC010E94A2068C0F9D1FDF91CF9148
:100FB0001F91FF90EF90DF90CF90BF90AF909F90E8
:100FC0008F90089546015701E894B7F82FEF3FEF4F
:100FD0004FE75FE7C501B4010E947A1581110DC08A
:100FE0002FEF3FEF4FE75FE7C501B4010E94AB125F
:100FF00018161CF48DE192E0D2CF2FEF3FEF4FE7B0
:101000005FE4C701B6010E94751518161CF481E251
:1010100092E0C5CF2FEF3FEF4FE75FECC701B6017E
:101020000E94AB1287FDF3CF20E030E0A901C70199
:10103000B6010E94AB12D0E0C0E087FF0AC06DE2AB
:101040008FE193E00E948105EC01F7FAF094F7F844
:10105000F0942CEB37E346E055E3C701B6010E945C
:1010600061146B017C010E9446154B015C010E94DA
:10107000B0129B01AC01C701B6010E9460146B0164
:101080007C014AE0C501B4010E940607C80FD91FC0
:101090006EE28FE193E00E948105C80FD91F17E02F
:1010A000115009F47FCF20E030E040E251E4C70165
:1010B000B6010E9411134B015C010E9446156B01A1
:1010C000F12CE12C4AE0C701B6010E940607C80FC7
:1010D000D91FC701B6010E94B0129B01AC01C50126
:1010E000B4010E9460146B017C01DACFCF93DF93CF
:1010F0008AE197E00E94CE05C6E3D2E0688179815B
:101100008A819B810E948C0782E097E00E94CE0535
:101110006C817D818E819F810E948C078AEE96E092
:101120000E94CE05688579858A859B850E948C07FB
:101130008EEC96E00E94CE05688979898A899B8920
:101140000E94BA0782EB96E00E94CE056C897D89E9
:101150008E899F890E94BA078DE996E00E94CE058C
:101160006C857D858E859F850E948C0784E896E03E
:101170000E94CE05688D798D8A8D9B8D0E94BA075D
:101180008BE696E00E94CE056C8D7D8D8E8D9F8DB9
:101190000E94BA0782E596E00E94CE0568A179A177
:1011A0008AA19BA10E94BA0789E396E00E94CE051E
:1011B0006CA17DA18EA19FA10E94BA0780E296E05A
:1011C0000E94CE0568A579A58AA59BA50E94BA07AD
:1011D00087E096E00E94CE056CA57DA58EA59FA513
:1011E0000E94BA078EEE95E00E94CE0568A979A903
:1011F0008AA99BA90E94BA0785ED95E00E94CE05B9
:101200006CA97DA98EA99FA90E94BA0788EB95E0D9
:101210000E94CE0568AD79AD8AAD9BAD0E948C076A
:101220008AE995E00E94CE056CAD7DAD8EAD9FAD97
:101230000E948C0788E895E00E94CE0560917602B6
:101240007091770280917802909179020E948C07C8
:10125000DF91CF910C94A206E6E3F2E08BE69EE7E5
:10126000ACE5B2E4848B958BA68BB78B8AE593EFC4
:10127000A3EAB0E4808B918BA28BB38B88EB9BE0CD
:10128000A0E0B0E084839583A683B7838CEA9DE0D9
:10129000A0E0B0E080879187A287B38785E090E0E7
:1012A000A0E0B0E084879587A687B78788E090E0C4
:1012B000A0E0B0E080839183A283B38381E090E0DB
:1012C000A0E0B0E080AF91AFA2AFB3AF84AF95AF75
:1012D000A6AFB7AF84E590E0A0E8BFE3808F918F21
:1012E000A28FB38F8CE59FE8A2E8BFE3848F958F30
:1012F000A68FB78F8AE097EDA3E8BFE380A391A301
:10130000A2A3B3A388EB9EE1A5E8BFE384A395A3C2
:10131000A6A3B7A386E696E6A6E8BFE380A791A7B3
:10132000A2A7B3A784E19EEAA7E8BFE384A795A795
:10133000A6A7B7A783EC95EFA8E8BFE380AB91AB76
:10134000A2ABB3AB81E79DE3AAE8BFE384AB95AB67
:10135000A6ABB7AB80E098E0A0E0B0E08093760267
:1013600090937702A0937802B09379028CE695E08F
:101370000E94CE050C947608AF92BF92CF92DF9276
:10138000EF92FF920F931F93CF93DF9300D01F92A2
:10139000CDB7DEB724E4289F7001299FF00C1124FB
:1013A00083E391E00E94CE05C7010E944A078BEDBE
:1013B000C82E82E0D82E9FE1A92E93E0B92E860197
:1013C000C7018B5D92407C01C701800F911F0E9475
:1013D000CF13F80181938F01AE16BF06A9F71982CA
:1013E0001A821B821C82CE0101960E94BF04609368
:1013F0003602709337028093380290933902CE01FF
:1014000001960E94BF0460933A0270933B0280935E
:101410003C0290933D02CE0101960E94BF0460936E
:101420003E0270933F028093400290934102CE01AE
:1014300001960E94BF04609342027093430280931E
:10144000440290934502CE0101960E94A904BC017A
:10145000990F880B990B0E94B21220E030E048EC03
:1014600052E40E94CD146093460270934702809329
:10147000480290934902CE0101960E94A904BC0142
:10148000990F880B990B0E94B21220E030E048ECD3
:1014900052E40E94CD1460934A0270934B028093F1
:1014A0004C0290934D02CE0101960E94A904BC010A
:1014B000990F880B990B0E94B21220E030E048ECA3
:1014C00052E40E94CD1460934E0270934F028093B9
:1014D000500290935102CE0101960E94A904BC01D2
:1014E000990F880B990B0E94B21220E030E048EC73
:1014F00052E40E94CD146093520270935302809381
:10150000540290935502CE0101960E94A904BC0199
:10151000990F880B990B0E94B21220E030E048EC42
:1015200052E40E94CD146093560270935702809348
:10153000580290935902CE0101960E94A904BC0161
:10154000990F880B990B0E94B21220E030E048EC12
:1015500052E40E94CD1460935A0270935B02809310
:101560005C0290935D02CE0101960E94A904BC0129
:10157000990F880B990B0E94B21220E030E048ECE2
:1015800052E40E94CD1460935E0270935F028093D8
:10159000600290936102CE0101960E94A904BC01F1
:1015A000990F880B990B0E94B21220E030E048ECB2
:1015B00052E40E94CD1460936202709363028093A0
:1015C000640290936502CE0101960E94A904BC01B9
:1015D000990F880B990B0E94B21220E030E048EC82
:1015E00052E40E94CD146093660270936702809368
:1015F000680290936902CE0101960E94A904BC0181
:10160000990F880B990B0E94B21220E030E048EC51
:1016100052E40E94CD1460936A0270936B0280932F
:101620006C0290936D02CE0101960E94A904BC0148
:10163000990F880B990B0E94B21220E030E048EC21
:1016400052E40E94CD140E94461560936E0270937E
:101650006F028093700290937102CE0101960E94F6
:10166000A904BC01990F880B990B0E94B21220E0CB
:1016700030E048EC52E40E94CD140E94461560937D
:101680007202709373028093740290937502CE017C
:1016900001960E94A904092E000CAA0BBB0B809393
:1016A000760290937702A0937802B0937902F601C4
:1016B00061916F0170E090E080E040E10E940607D8
:1016C000C016D106A1F70E94A2060E9476088CE2FD
:1016D00091E00E94A6060F900F900F900F90DF915F
:1016E000CF911F910F91FF90EF90DF90CF90BF901F
:1016F000AF9008950E943A060C94BC09AF92BF9235
:10170000CF92DF92EF92FF920F931F93CF93DF93CD
:1017100000D01F92CDB7DEB70E943A0624E4289F7E
:101720008001299F100D11248EE595E00E94CE05C1
:101730004AE064E470E080E090E00E94060786E5FD
:1017400095E00E94CE0588E495E00E94CE05C80190
:101750000E944A070E94A20619821A821B821C82DA
:10176000609136027091370280913802909139026F
:10177000AE014F5F5F4F0E94540460913A02709136
:101780003B0280913C0290913D02AE014F5F5F4F62
:101790000E94540460913E0270913F028091400289
:1017A00090914102AE014F5F5F4F0E9454046091DF
:1017B0004202709143028091440290914502AE0131
:1017C0004F5F5F4F0E94540420E030E048EC52E449
:1017D00060914602709147028091480290914902BF
:1017E0000E9411130E943F15CB01BE016F5F7F4F16
:1017F0000E942A0420E030E048EC52E460914A0262
:1018000070914B0280914C0290914D020E941113F5
:101810000E943F15CB01BE016F5F7F4F0E942A04DB
:1018200020E030E048EC52E460914E0270914F02AB
:1018300080915002909151020E9411130E943F1515
:10184000CB01BE016F5F7F4F0E942A0420E030E091
:1018500048EC52E46091520270915302809154021C
:10186000909155020E9411130E943F15CB01BE01B9
:101870006F5F7F4F0E942A0420E030E048EC52E482
:1018800060915602709157028091580290915902CE
:101890000E9411130E943F15CB01BE016F5F7F4F65
:1018A0000E942A0420E030E048EC52E460915A02A1
:1018B00070915B0280915C0290915D020E94111315
:1018C0000E943F15CB01BE016F5F7F4F0E942A042B
:1018D00020E030E048EC52E460915E0270915F02DB
:1018E00080916002909161020E9411130E943F1545
:1018F000CB01BE016F5F7F4F0E942A0420E030E0E1
:1019000048EC52E46091620270916302809164023B
:10191000909165020E9411130E943F15CB01BE01F8
:101920006F5F7F4F0E942A0420E030E048EC52E4D1
:1019300060916602709167028091680290916902DD
:101940000E9411130E943F15CB01BE016F5F7F4FB4
:101950000E942A0420E030E048EC52E460916A02E0
:1019600070916B0280916C0290916D020E94111334
:101970000E943F15CB01BE016F5F7F4F0E942A047A
:1019800060916E0270916F0280917002909171026D
:101990000E94B01220E030E048EC52E40E941113A3
:1019A0000E943F15CB01BE016F5F7F4F0E942A044A
:1019B000609172027091730280917402909175022D
:1019C0000E94B01220E030E048EC52E40E94111373
:1019D0000E943F15CB01BE016F5F7F4F0E942A041A
:1019E000BE016F5F7F4F80917602909177020E94D7
:1019F0002A049BEDC92E92E0D92E5601F12CE12C40
:101A0000F50161915F01C8018E0D9F1D0E94D713E2
:101A1000FFEFEF1AFF0A84E4E816F10489F78BED73
:101A2000E82E82E0F82E0B5D1240C8018E0D9F1D3E
:101A30000E94CF13F70181937F01FFE1EF16F3E0DE
:101A4000FF0699F7F60161916F0170E090E080E088
:101A500040E10E940607FFE1CF16F3E0DF0691F7B1
:101A600081E495E00E94A6060F900F900F900F90D2
:101A7000DF91CF911F910F91FF90EF90DF90CF906A
:101A8000BF90AF9008951F920F920FB60F9211243E
:101A90002F933F938F939F93AF93BF938091D702E0
:101AA0009091D802A091D902B091DA023091D60279
:101AB00023E0230F2D3758F50196A11DB11D20936A
:101AC000D6028093D7029093D802A093D902B09304
:101AD000DA028091D2029091D302A091D402B09107
:101AE000D5020196A11DB11D8093D2029093D3021D
:101AF000A093D402B093D502BF91AF919F918F91E3
:101B00003F912F910F900FBE0F901F90189526E8D0
:101B1000230F0296A11DB11DD2CF1F920F920FB6B7
:101B20000F9211240BB60F922F933F934F935F9315
:101B30006F937F938F939F93AF93BF93EF93FF9395
:101B40008FE193E00E945F05FF91EF91BF91AF910C
:101B50009F918F917F916F915F914F913F912F91C5
:101B60000F900BBE0F900FBE0F901F9018951F92F5
:101B70000F920FB60F9211240BB60F922F938F93E3
:101B80009F93EF93FF93E0912F03F09130038081B7
:101B9000E0913503F091360382FD1DC09081809164
:101BA00038038F5F8F7320913903821741F0E091E2
:101BB0003803F0E0E15EFC4F958F80933803FF918E
:101BC000EF919F918F912F910F900BBE0F900FBEB1
:101BD0000F901F9018958081F2CF109222031092DF
:101BE000210388EE93E0A0E0B0E08093230390937C
:101BF0002403A0932503B093260388E092E09093FA
:101C0000200380931F0385EC90E090932C03809336
:101C10002B0384EC90E090932E0380932D0380ECB3
:101C200090E09093300380932F0381EC90E09093A9
:101C300032038093310382EC90E0909334038093DD
:101C4000330386EC90E09093360380933503109233
:101C500038031092390310923A0310923B0310920A
:101C60001306109212068FE193E090930E06809374
:101C70000D061092C4038CE2809310068BE38093D0
:101C80000F068FE28093110680E48093BF038FE3F9
:101C90008093C0031092BE031092090610920806AA
:101CA00010920B0610920A0681E080930606E4E18A
:101CB000F6E01192119286E0E837F807D1F710921A
:101CC000C3030895789484B5826084BD84B581602F
:101CD00084BD85B5826085BD85B5816085BD8091F7
:101CE0006E00816080936E0010928100809181006F
:101CF0008260809381008091810081608093810067
:101D0000809180008160809380008091B100846028
:101D10008093B1008091B00081608093B000809189
:101D20009100826080939100809191008160809306
:101D30009100809190008160809390008091A1003B
:101D400082608093A1008091A10081608093A100B6
:101D50008091A00081608093A00080912101826029
:101D600080932101809121018160809321018091E4
:101D7000200181608093200180917A0084608093AB
:101D80007A0080917A00826080937A0080917A0054
:101D9000816080937A0080917A00806880937A00D5
:101DA0001092C100E0912F03F091300382E0808314
:101DB000E0912B03F0912C031082E0912D03F09120
:101DC0002E0380E1808310923703E0913303F0917A
:101DD000340386E08083E0913103F0913203808107
:101DE00080618083E0913103F091320380818860CB
:101DF0008083E0913103F091320380818068808399
:101E0000E0913103F091320380818F7D808381E006
:101E10008093C40382EB96E090931506809314069A
:101E20008AE797E0909317068093160689E997E072
:101E300090931906809318068AEF96E090931B06FC
:101E400080931A068EEF96E090931D0680931C06F1
:101E500082E097E090931F0680931E068EE79BE03A
:101E600090932106809320068AE79BE090932306B7
:101E70008093220686E798E09093270680932606B3
:101E80008CE299E0909325068093240681E090E00F
:101E9000909335028093340280E098E0A0E0B0E0B7
:101EA00080937E0290937F02A0938002B093810280
:101EB00090E080E00E94BC0985E292E00E949506D5
:101EC0000E94A20611E0F12CE12C80907602909005
:101ED0007702A0907802B0907902C701B0E0A0E04C
:101EE00088159905AA05BB05F0F5CAE7D2E080E0A0
:101EF00090E0DC014C015D01EFEF8E1A9E0AAE0A04
:101F0000BE0A249640913602509137026091380201
:101F10007091390284179507A607B70708F04FC0DC
:101F20000E942D1226E430E040E050E00E94E513CC
:101F30009B01AC012658324F4F4F5F4FC501B40192
:101F40000E9448144C805D806E807F80DC01CB0154
:101F5000840D951DA61DB71D8C839D83AE83BF8305
:101F6000D501C401C7CF409036025090370260902F
:101F700038027090390262014AE7E42E42E0F42E02
:101F8000D0E0C0E02FEF821A920AA20AB20A24E03F
:101F9000E20EF11CCC15DD05B1F0D70114966D9160
:101FA0007D918D919C911797A50194010E94171422
:101FB000F70124833583468357832196E8CFFFEFCB
:101FC000EF1AFF0A82CFCC0FDD1FCC0FDD1FC658E2
:101FD000DD4FF2E0CA37DF0791F088859985AA8541
:101FE000BB854C815D816E817F81841B950BA60B27
:101FF000B70B88A799A7AAA7BBA72497EACF809178
:10200000820290918302A0918402B0918502809314
:10201000A2029093A302A093A402B093A50290E021
:1020200080E0AC0170E060E0441555056605770579
:1020300010F40196F6CF8091340290913502892BED
:1020400009F4DDC081E997E00E94A60686E797E0E3
:102050000E94A60686E697E00E94CE054AE064E468
:1020600070E080E090E00E9406070E94A20689E5E9
:1020700097E00E94CE056091760270917702809180
:102080007802909179020E948C07C2EAD2E07E0128
:1020900060E070E0CB0140903602509037026090D3
:1020A0003802709039024B015C012FEF821A920ABC
:1020B000A20AB20A6415750586059705B8F0E2EA2A
:1020C000F2E090E080E0C12CD12C76014816590650
:1020D000F9F04191519161917191C416D506E606CE
:1020E000F70610F46A017B010196F0CF4AE00E94E6
:1020F000060780E392E00E949506D7016D917D91DD
:102100008D919D917D010E948C07C501B401C3CFC3
:102110004601570130E020E08217930771F04991A2
:10212000599169917991481559056A057B0510F413
:102130004A015B012F5F3F4FEFCF412C512C320101
:10214000C814D904EA04FB0431F026013701481809
:1021500059086A087B0840913E0250913F02609105
:1021600040027091410280913A0290913B02A0910D
:102170003C02B0913D0288159905AA05BB0508F0FF
:1021800000C181E000E0D0E0C0E0C416D506E6065C
:10219000F70608F080E0382E8091420290914302C9
:1021A000A0914402B0914502481659066A067B0682
:1021B00020F0312C00E0D0E0C0E08CE497E00E94F9
:1021C000CE05C501B4010E948C078EE397E00E9402
:1021D000CE05C701B6010E948C0783E397E00E94F9
:1021E000CE05C301B2010E948C078BE297E00E94EA
:1021F000CE05632D702F8D2F9C2F0E948C07809110
:10220000C3038111D4C080910D0690910E06DC01AC
:10221000ED91FC910084F185E02D1995892B09F44D
:10222000C6C080910D0690910E06DC01ED91FC91E7
:102230000084F185E02D1995C12C22E0D22E811564
:10224000924064F480910D0690910E06DC01ED91B0
:10225000FC910084F185E02D19956C01C0910D066B
:10226000D0910E0695E0A92E94E0B92E4501F12CEF
:10227000E12CCE14DF04A1F12FB7F8948091D7029E
:102280009091D802A091D902B091DA022FBF88872D
:102290009987AA87BB87E881F9810284F385E02DBD
:1022A000CE01199597FF86C02FB7F8948091D70279
:1022B0009091D802A091D902B091DA022FBF48853F
:1022C00059856A857B85841B950BA60BB70B4C81C2
:1022D0005D816E817F8184179507A607B707D8F2C5
:1022E000D0E0C0E0CC16DD0609F489CFF50191916C
:1022F0005F0110920506309111062091C203909360
:10230000C203931304C0921302C01092C2038091BF
:10231000BE03E82FF0E040910F06E454FC4F941305
:1023200035C0321799F11186882321F010930506E4
:102330001092C2031092BE03109209061092080672
:1023400010920B0610920A0610930606809105065D
:10235000813059F50E943A068093BD038233F8F428
:10236000209107062223D9F0FC01FF27EE0FFF1F63
:10237000EC5EF94F0190F081E02D309781F01995D6
:1023800014C0312C00E0D0E0C0E006CF91878F5F11
:102390008093BE039091C003891760F6D7CFE09178
:1023A0001206F0911306309751F721969BCF0E94A9
:1023B000090689CDD4018D934D01BFEFEB1AFB0ABD
:1023C00058CF8F929F92AF92BF92CF92DF92EF92AF
:1023D000FF92CF93DF93EC01688179818A819B81A1
:1023E000611571058105910521F464E279ED8BE5B4
:1023F00097E02DE133EF41E050E00E94E513490101
:102400005A019B01AC01A7EAB1E40E9404146B01DC
:102410007C01ACEEB4EFA50194010E941214C60E2B
:10242000D71EE81EF91EF7FE06C081E0C81AD108C3
:10243000E10880E8F80AC882D982EA82FB82C701F3
:10244000B6019F77DF91CF91FF90EF90DF90CF9013
:10245000BF90AF909F908F9008958F929F92AF9270
:10246000BF92CF92DF92EF92FF9260910002709143
:1024700001028091020290910302611571058105AC
:10248000910521F464E279ED8BE597E02DE133EFDE
:1024900041E050E00E94E51349015A019B01AC0163
:1024A000A7EAB1E40E9404146B017C01ACEEB4EF26
:1024B000A50194010E941214C60ED71EE81EF91E33
:1024C000F7FE06C081E0C81AD108E10880E8F80AE2
:1024D000C0920002D0920102E0920202F092030246
:1024E000C701B6019F77FF90EF90DF90CF90BF902C
:1024F000AF909F908F9008956093000270930102B7
:1025000080930202909303020895FC018827992783
:10251000E89421912032E9F3293010F02E30C8F3ED
:102520002B3241F02D3239F4689404C00E94A3127A
:10253000820F911D219120532A30C0F31EF49095F3
:1025400081959F4F08957AE0979F902D879F802DCA
:10255000910D112408950E94ED1208F481E0089570
:10256000E89409C097FB3EF490958095709561952D
:102570007F4F8F4F9F4F9923A9F0F92F96E9BB27E3
:102580009395F695879577956795B795F111F8CF5F
:10259000FAF4BB0F11F460FF1BC06F5F7F4F8F4FCA
:1025A0009F4F16C0882311F096E911C0772321F0C0
:1025B0009EE8872F762F05C0662371F096E8862F58
:1025C00070E060E02AF09A95660F771F881FDAF7AF
:1025D000880F9695879597F90895990F0008550FDC
:1025E000AA0BE0E8FEEF16161706E807F907C0F099
:1025F00012161306E407F50798F0621B730B840BA1
:10260000950B39F40A2661F0232B242B252B21F47A
:1026100008950A2609F4A140A6958FEF811D811D1A
:1026200008950E9424130C9495130E94871338F088
:102630000E948E1320F0952311F00C947E130C94BD
:10264000841311240C94C9130E94A61370F3959F50
:10265000C1F3950F50E0551F629FF001729FBB2799
:10266000F00DB11D639FAA27F00DB11DAA1F649F35
:102670006627B00DA11D661F829F2227B00DA11DE8
:10268000621F739FB00DA11D621F839FA00D611D6E
:10269000221F749F3327A00D611D231F849F600D8F
:1026A000211D822F762F6A2F11249F5750409AF0B8
:1026B000F1F088234AF0EE0FFF1FBB1F661F771F44
:1026C000881F91505040A9F79E3F510580F00C940F
:1026D0007E130C94C9135F3FE4F3983ED4F38695C0
:1026E00077956795B795F795E7959F5FC1F7FE2BAF
:1026F000880F911D9695879597F9089597F99F678B
:1027000080E870E060E008959FEF80EC0895002479
:102710000A941616170618060906089500240A9446
:1027200012161306140605060895092E0394000CCC
:1027300011F4882352F0BB0F40F4BF2B11F460FF5B
:1027400004C06F5F7F4F8F4F9F4F089557FD905884
:10275000440F551F59F05F3F71F04795880F97FB65
:10276000991F61F09F3F79F087950895121613061F
:102770001406551FF2CF4695F1DF08C0161617064E
:102780001806991FF1CF8695710561050894089583
:10279000E894BB2766277727CB0197F90895F99925
:1027A000FECF92BD81BDF89A992780B50895262F56
:1027B000F999FECF1FBA92BD81BD20BD0FB6F89426
:1027C000FA9AF99A0FBE01960895052E97FB1EF40A
:1027D00000940E94FC1357FD07D00E94171407FCB9
:1027E00003D04EF40C94FC135095409530952195F0
:1027F0003F4F4F4F5F4F089590958095709561952D
:102800007F4F8F4F9F4F08950E943914A59F900DC1
:10281000B49F900DA49F800D911D11240895B7FFC2
:102820000C9404140E940414821B930B0895A1E2DB
:102830001A2EAA1BBB1BFD010DC0AA1FBB1FEE1F3A
:10284000FF1FA217B307E407F50720F0A21BB30B85
:10285000E40BF50B661F771F881F991F1A9469F701
:1028600060957095809590959B01AC01BD01CF015D
:102870000895A29FB001B39FC001A39F700D811D59
:102880001124911DB29F700D811D1124911D089579
:10289000DB018F939F930E940414BF91AF91A29F7D
:1028A000800D911DA39F900DB29F900D112408954E
:1028B000EE0FFF1F881F8BBF0790F691E02D199434
:1028C0005058BB27AA270E9478140C9495130E9495
:1028D000871338F00E948E1320F039F49F3F19F4CB
:1028E00026F40C9484130EF4E095E7FB0C947E130D
:1028F000E92F0E94A61358F3BA17620773078407DB
:10290000950720F079F4A6F50C94C8130EF4E09521
:102910000B2EBA2FA02D0B01B90190010C01CA0199
:10292000A0011124FF27591B99F0593F50F4503E44
:1029300068F11A16F040A22F232F342F4427585F36
:10294000F3CF469537952795A795F0405395C9F74E
:102950007EF41F16BA0B620B730B840BBAF0915006
:10296000A1F0FF0FBB1F661F771F881FC2F70EC0A5
:10297000BA0F621F731F841F48F487957795679578
:10298000B795F7959E3F08F0B0CF9395880F08F064
:102990009927EE0F9795879508950E94E1140C945E
:1029A00095130E948E1358F00E94871340F029F46B
:1029B0005F3F29F00C947E1351110C94C9130C94B1
:1029C00084130E94A61368F39923B1F3552391F35E
:1029D000951B550BBB27AA2762177307840738F08E
:1029E0009F5F5F4F220F331F441FAA1FA9F335D0EB
:1029F0000E2E3AF0E0E832D091505040E695001C9F
:102A0000CAF72BD0FE2F29D0660F771F881FBB1F58
:102A1000261737074807AB07B0E809F0BB0B802D36
:102A2000BF01FF2793585F4F3AF09E3F510578F062
:102A30000C947E130C94C9135F3FE4F3983ED4F3D7
:102A4000869577956795B795F7959F5FC9F7880F36
:102A5000911D9695879597F90895E1E0660F771F88
:102A6000881FBB1F621773078407BA0720F0621B19
:102A7000730B840BBA0BEE1F88F7E09508950E9444
:102A800046156894B1110C94C91308950E94AE13B1
:102A900088F09F5798F0B92F9927B751B0F0E1F01F
:102AA000660F771F881F991F1AF0BA95C9F714C0CF
:102AB000B13091F00E94C813B1E008950C94C8138E
:102AC000672F782F8827B85F39F0B93FCCF3869508
:102AD00077956795B395D9F73EF490958095709565
:102AE00061957F4F8F4F9F4F08950E94ED1208F41C
:102AF0008FEF08950E94ED12880B990B0895F894BA
:022B0000FFCF05
:102B020001000000000000008105EB041805E90542
:102B1200490527053B050D0A006E616E00696E6668
:102B2200006F766600736574757020646F6E650061
:042B32003A0900005C
:00000001FF
