:100000000C9452040C9483040C9483040C94830485
:100010000C9483040C9483040C9483040C94830444
:100020000C9483040C9483040C9483040C94830434
:100030000C9483040C9483040C9483040C94830424
:100040000C9483040C9483040C9483040C94830414
:100050000C9483040C9483040C9483040C94C50EB8
:100060000C9483040C94390F0C940F0F0C9483049C
:100070000C9483040C9483040C9483040C948304E4
:100080000C9483040C9483040C9483040C948304D4
:100090000C9483040C9483040C9483040C948304C4
:1000A0000C9483040C9483040C9483040C948304B4
:1000B0000C9483040C9483040C9483040C948304A4
:1000C0000C9483040C9483040C9483040C94830494
:1000D0000C9483040C9483040C9483040C94830484
:1000E0000C9483040C9410090C94D9070C94A80C5C
:1000F0000C94140A0C941F080C94A40C0C9416066F
:100100000C94D40A0C94B6060C946D0E0C94B8059D
:100110000C946F0F0C9438070C94F4050C944E0655
:100120000C94E5050C944A090C9408064E414E497E
:100130004E495459494E46CDCCCC3D0AD7233C17A5
:10014000B7D13877CC2B329595E6241FB14F0A00F2
:100150000020410000C84200401C4620BCBE4CCAE2
:100160001B0E5AAEC59D742E2E646F6E65004C6FCB
:10017000616420436F6E6669672066726F6D204F01
:1001800066667365743A0020392C3C53686F77209B
:10019000436F6E6669673E202020202020202020AB
:1001A000202D20536C6F7420302D340020382C3CCF
:1001B0004C6F61642044656661756C74733E2020E9
:1001C0002020202020202D20466163746F7279202A
:1001D00064656661756C7473206C6164656E002083
:1001E000372C3C4C6F616420436F6E6669673E201C
:1001F0002020202020202020202D20536C6F3174BF
:1002000020302D342C20506172616D657465722030
:100210006C6164656E0020362C3C5361766520432A
:100220006F6E6669673E202020202020202020203D
:100230002D20536C6F7420302D3420506172616D0D
:10024000657465722073706569636865726E0023FA
:10025000232323232323232323232323232323236E
:10026000232323232323232323232323232323235E
:10027000232323232323232323232323232323234E
:100280002323232323230023205361766567616D95
:100290006520302077697264207374657473206EF2
:1002A0006163682052657365742067656C6164657D
:1002B0006E2020202020202020202020202300230A
:1002C00023232323232323232323232323232323FE
:1002D00023232323232323232323232323232323EE
:1002E00023232323232323232323232323232323DE
:1002F00023232323232300202020202E2E2E3C5A8C
:10030000656C6C6520302D373E3C28666C6F6174DF
:100310002946616B746F723E2E2E2E200020352CE4
:100320003C7365744164635363616C65723E3B204A
:100330002020202020202D2046616B746F722066C3
:10034000C3BC72204144435B626974735D2D3E6D92
:10035000562E2E2E200020342C3C73657454656D6F
:10036000704C6F77486967683E3B20202020202D25
:10037000204C696D6974732066C3BC72205A656C29
:100380006C74656D70657261747572200020202038
:10039000202E2E2E44696666206973742064696578
:1003A000204D6178696D616C652041627765696394
:1003B00068756E6720696D20416B6B750020332C6A
:1003C0003C7365744C6F7748696768446966663E3C
:1003D0003B20202020202D204C696D6974732066FD
:1003E000C3BC72206A656465205A656C6C655B6D80
:1003F000565D2E2E200020322C3C736574417667AA
:1004000053616D706C65733E3B2020202020202DB1
:100410002073616D706C65732066C3BC72206D695A
:100420007474656C77657274652070726F206B618F
:100430006E616C2C20312E2E343039360020312C58
:100440003C736574506572696F6469635265706F5F
:1004500072743E3B20202D204C6976652D446174DA
:10046000656E205370616D2C20302E2E31303A2075
:10047000757064617465732F7365630020303B2071
:10048000202020202020202020202020202020206C
:1004900020202020202D206469657365204175731C
:1004A000676162650023232323232323232323233C
:1004B000232323232323232323232323232323230C
:1004C00023232323232323232323232323232323FC
:1004D00023232323232323232323232300232054E1
:1004E000656D70657261747572656E20696E204706
:1004F000726164206D697420566F727A65696368F1
:10050000656E202020202020202020202020202058
:10051000202023002320417267756D656E742030A2
:100520002F2D3120207A65696774205765727420F9
:100530006F686E652041656E646572756E672061D7
:100540006E2020202020202020230023232323236B
:10055000232323232323232323232323232323236B
:10056000232323232323232323232323232323235B
:10057000232323232323232323232323232323234B
:100580002323005570706572204C696D69743A00C0
:100590004D617820446966663A004C6F7765722039
:1005A0004C696D69743A007365744C6F774869677C
:1005B00068446966663A0055707065722054656DCE
:1005C0007065726174757265204C696D69743A006A
:1005D0004C6F7765722054656D70657261747572C9
:1005E00065204C696D69743A0053657454656D708B
:1005F0004C6F77486967683A002E2E2E646F6E65DF
:100600000073657441766753616D706C65733A0071
:1006100073657441766753616D706C65733A0066FB
:100620006C61675F506572696F6469635265706F72
:100630007274456E61626C653A002E2E646F6E6551
:100640000062797465206F66667365743A20006293
:10065000797465732920005361766520436F6E6657
:1006600069672028004C6F61642044656661756C81
:1006700074732066726F6D2050726F676D656D3A8E
:1006800000626174742D3E73616D706C65636F758B
:100690006E7400626174742D3E72657346616B7492
:1006A0006F725B43555252454E545F4F55545D3AFD
:1006B00000626174742D3E72657346616B746F7273
:1006C0005B43555252454E545F494E5D3A0062615C
:1006D00074742D3E72657346616B746F725B434533
:1006E0004C4C30385D3A00626174742D3E72657313
:1006F00046616B746F725B43454C4C30375D3A001A
:10070000626174742D3E72657346616B746F725BC7
:1007100043454C4C30365D3A00626174742D3E7234
:10072000657346616B746F725B43454C4C30355D4D
:100730003A00626174742D3E72657346616B746F2A
:10074000725B43454C4C30345D3A00626174742DE9
:100750003E72657346616B746F725B43454C4C30FF
:10076000335D3A00626174742D3E72657346616B4D
:10077000746F725B43454C4C30325D3A0062617479
:10078000742D3E72657346616B746F725B43454CAA
:100790004C30315D3A00626174742D3E63656C6C5F
:1007A0005F6D61785F646966663A00626174742D9A
:1007B0003E63656C6C5F6D61785F74656D706572CA
:1007C00061747572653A00626174742D3E63656C84
:1007D0006C5F6D696E5F74656D7065726174757262
:1007E000653A00626174742D3E63656C6C5F6D6187
:1007F000785F766F6C746167653A00626174742D1E
:100800003E63656C6C5F6D696E5F766F6C7461677B
:10081000653A00626174742D3E63656C6C636F753C
:100820006E743A00656E61626C653A006469666672
:100830002063656C6C3A006869676865737420436F
:10084000656C6C3A006C6F776573742043656C6CF3
:100850003A0053616D706C65636F756E743A007326
:1008600061666567616D652062797465733A002120
:10087000212120547970652027303B2720666F7234
:100880002068656C7020212121002D2D2D524550AE
:100890004F52543A204C4F474F424A454B542D2D0E
:1008A0002D006F0F11241FBECFEFD1E2DEBFCDBFF1
:1008B00000E00CBF12E0A0E0B2E0ECE0F1E300E009
:1008C0000BBF02C007900D92A433B107D9F726E001
:1008D000A4E3B2E001C01D92AA37B207E1F714E029
:1008E000C2E5D4E000E006C021970109802FFE0197
:1008F0000E945D17C135D10780E00807A9F70E9463
:10090000E40F0C9484180C940000AC011092C10305
:100910009091110680911006FA01BF01641B750BBE
:100920002091C10330813093C103931304C092130B
:1009300002C01092C1033081311104C0921721F01E
:10094000CB0108953817D1F33196E7CF0F931F935A
:10095000CF93DF9380910506882309F446C0D0E049
:10096000C0E0813029F482E080930506C5ECD3E035
:1009700080910606882341F1209721F4C0910A0650
:10098000D0910B068E01CE010E948504892B29F49B
:100990002196F80180818111F5CFF80180818823AB
:1009A00009F1C8010E948504F801E80FF91F808150
:1009B000882311F010823196F0930B06E0930A061B
:1009C0001093090600930806809108069091090685
:1009D000892B59F081E080930606DF91CF911F911A
:1009E0000F91089510E000E0EBCF80E0F6CF0F9379
:1009F0001F93FB0140815181628173818A019B01B8
:100A00000F5F1F4F2F4F3F4F00831183228333838C
:100A100045525D4FDA019C9340815181628173811F
:100A20008A019B010F5F1F4F2F4F3F4F00831183A0
:100A30002283338345525D4FFA0180831F910F91CA
:100A40000895CF92DF92EF92FF929B01FA014081CD
:100A50005181628173816A017B01AFEFCA1ADA0AA0
:100A6000EA0AFA0AC082D182E282F38245525D4FDD
:100A7000DA019C9340815181628173816A017B011B
:100A8000BFEFCB1ADB0AEB0AFB0AC082D182E282FB
:100A9000F38245525D4FDA018C9380819181A2816E
:100AA000B381AC01BD014F5F5F4F6F4F7F4F4083FC
:100AB00051836283738385529D4FDC013C93808117
:100AC0009181A281B381AC01BD014F5F5F4F6F4F38
:100AD0007F4F408351836283738385529D4FFC0116
:100AE0002083FF90EF90DF90CF900895FC0140812C
:100AF000518162817381DA01A552BD4F9C91DA0167
:100B0000A452BD4F8C914E5F5F4F6F4F7F4F40831C
:100B100051836283738308950F931F93FC010081B7
:100B2000118122813381D801A552BD4F6C9170E0B3
:100B300090E080E0962F882777276627D801A25279
:100B4000BD4F4C91642BD801A452BD4F4C91842BC6
:100B5000D801A352BD4F4C91742B0C5F1F4F2F4FE8
:100B60003F4F00831183228333831F910F91089598
:100B7000AF92BF92CF92DF92EF92FF920F931F93AB
:100B8000CF93DF936C017B018B01040F151FEB01E9
:100B90005E01AE18BF08C017D10759F06991D601A0
:100BA000ED91FC910190F081E02DC6011995892B02
:100BB00079F7C501DF91CF911F910F91FF90EF90D1
:100BC000DF90CF90BF90AF900895FC01538D448D7E
:100BD000252F30E0842F90E0821B930B541710F0E8
:100BE000CF96089501970895FC01918D828D9817F5
:100BF00061F0A28DAE0FBF2FB11D5D968C91928DCD
:100C00009F5F9F73928F90E008958FEF9FEF0895FD
:100C1000FC01918D828D981731F0828DE80FF11DC6
:100C2000858D90E008958FEF9FEF0895FC01918DE1
:100C3000228D892F90E0805C9F4F821B91098F73DA
:100C4000992708958FE193E00E94160621E0892BF1
:100C500009F420E0822F0895FC01A48DA80FB92F7C
:100C6000B11DA35ABF4F2C91848D90E001968F73D4
:100C70009927848FA689B7892C93A089B1898C91F3
:100C8000837080648C93938D848D981306C0028842
:100C9000F389E02D80818F7D80830895EF92FF920C
:100CA0000F931F93CF93DF93EC0181E0888F9B8D8F
:100CB0008C8D98131AC0E889F989808185FF15C049
:100CC0009FB7F894EE89FF896083E889F98980816C
:100CD0008370806480839FBF81E090E0DF91CF913B
:100CE0001F910F91FF90EF900895F62E0B8D10E05D
:100CF0000F5F1F4F0F731127E02E8C8D8E110CC0CC
:100D00000FB607FCFACFE889F989808185FFF5CF16
:100D1000CE010E942C06F1CFEB8DEC0FFD2FF11DC3
:100D2000E35AFF4FF0829FB7F8940B8FEA89FB8953
:100D300080818062CFCF0F931F93CF93DF938C017D
:100D4000D0E0C0E0F801EC0FFD1F6491662341F094
:100D50008FE193E00E944E06892B11F02196F2CF8D
:100D6000CE01DF91CF911F910F910895CF93DF9323
:100D7000EC01888D8823B9F0AA89BB89E889F989B3
:100D80008C9185FD03C0808186FD0DC00FB607FCE8
:100D9000F7CF8C9185FFF2CF808185FFEDCFCE011B
:100DA0000E942C06E9CFDF91CF91089580E090E07A
:100DB000892B29F00E94220681110E94000080E008
:100DC00090E0892B49F080E090E0892B29F00E9487
:100DD000000081110E94000080E090E0892B49F022
:100DE00080E090E0892B29F00E94000081110E9490
:100DF000000080E090E0892B49F080E090E0892BB2
:100E000029F00E94000081110C94000008950E94B6
:100E1000A604882359F081E0809306068093070694
:100E200080910806909109060C94661510920706A9
:100E300090E080E00895FC0101900020E9F73197EF
:100E4000AF01481B590BBC018FE193E00C94B8052E
:100E500086E192E00C941B07CF93DF930E949B06E0
:100E6000EC010E9428078C0F9D1FDF91CF91089500
:100E700010923502109234028BE495E00E942C0708
:100E800084E195E00E942C078DED94E00E942C07F0
:100E900085EA94E00E942C078CE794E00E942C07DE
:100EA0008DE394E00E942C0786EF93E00E942C07CC
:100EB0008DEB93E00E942C078DE893E00E942C07B5
:100EC00086E593E00E942C078DE193E00E942C07B9
:100ED00087EF92E00E942C078FEB92E00E942C0794
:100EE00087E892E00E942C078FE492E00E942C0792
:100EF00086E192E00E942C078FED91E00E942C0782
:100F00008CEA91E00E942C0787E891E00C942C0772
:100F10008F929F92AF92BF920F931F93CF93DF93C5
:100F2000CDB7DEB7A1970FB6F894DEBF0FBECDBF29
:100F300019A2423008F44AE08E010F5D1F4F842E43
:100F4000912CB12CA12CA50194010E941C17E62F15
:100F5000B901CA01EA30F4F4E05DD801EE938D01E5
:100F6000232B242B252B79F790E080E0109719F0A4
:100F7000CD010E941B07A1960FB6F894DEBF0FBEED
:100F8000CDBFDF91CF911F910F91BF90AF909F90F8
:100F90008F900895E95CE1CFCF93DF934AE00E9400
:100FA0008807EC010E9428078C0F9D1FDF91CF91CD
:100FB0000895CF93DF930E940707C6E3D2E0092E7E
:100FC000000CAA0BBB0B8C839D83AE83BF830E9456
:100FD0000707092E000CAA0BBB0B88879987AA87E5
:100FE000BB870E940707092E000CAA0BBB0B8C873E
:100FF0009D87AE87BF8787EA95E00E942C078AE924
:1010000095E00E949B066C817D818E819F810E946C
:10101000CC0780E995E00E949B066C857D858E85D6
:101020009F850E94CC0783E895E00E949B06688517
:1010300079858A859B85DF91CF910C94CC070E949E
:101040000707009771F481E096E00E949B0660918B
:101050007E0270917F0280918002909181020C94B7
:10106000CC07092E000CAA0BBB0B80937E02909339
:101070007F02A0938002B093810280E196E0E5CFE9
:101080004F925F926F927F928F929F92AF92BF9298
:10109000CF92DF92EF92FF921F93CF93DF936B017A
:1010A0007C01D42FAC019B010E947F188823C9F0DA
:1010B00089E192E00E941B07EC010E9428078C0F37
:1010C0009D1FDF91CF911F91FF90EF90DF90CF9008
:1010D000BF90AF909F908F907F906F905F904F9058
:1010E000089546015701E894B7F82FEF3FEF4FE717
:1010F0005FE7C501B4010E947F1881110DC02FEF79
:101100003FEF4FE75FE7C501B4010E94AD15181628
:101110001CF48DE192E0CECF2FEF3FEF4FE75FE47D
:10112000C701B6010E947A1818161CF481E292E0F9
:10113000C1CF2FEF3FEF4FE75FECC701B6010E9431
:10114000AD1587FDF3CF20E030E0A901C701B6015E
:101150000E94AD15B12CA12C87FF0AC06DE28FE172
:1011600093E00E944E065C01F7FAF094F7F8F094D1
:101170001D2F60E070E080E09FE3C0E020E030E001
:1011800040E251E40E94D217CF5FCD17B8F3A70118
:1011900096010E9466176B017C010E944B182B017F
:1011A0003C010E94B2159B01AC01C701B6010E942F
:1011B00065176B017C014AE0C301B2010E948807F8
:1011C000EC016EE28FE193E00E944E06C80FD91F3A
:1011D000CA0DDB1D115008F470CF20E030E040E272
:1011E00051E4C701B6010E9413164B015C010E9435
:1011F0004B186B01F12CE12C4AE0C701B6010E94AB
:101200008807C80FD91FC701B6010E94B2159B01FC
:10121000AC01C501B4010E9465176B017C01DACFF6
:10122000CF93DF930E940707C6E3D2E0BC01990F7A
:10123000880B990B0E94B415688B798B8A8B9B8BDA
:101240000E940707BC01990F880B990B0E94B415E7
:101250006C8B7D8B8E8B9F8B89EE95E00E942C078B
:1012600080ED95E00E949B06688979898A899B892F
:1012700042E050E00E94400887EB95E00E949B0608
:101280006C897D898E899F8942E050E0DF91CF9102
:101290000C944008CF93DF9383E198E00E949B0673
:1012A000C6E3D2E0688179818A819B810E94CC0764
:1012B0008BEF97E00E949B066C817D818E819F81E0
:1012C0000E94CC0783EE97E00E949B066885798593
:1012D0008A859B850E94CC0787EC97E00E949B063D
:1012E000688979898A899B8946E050E00E94400894
:1012F0008BEA97E00E949B066C897D898E899F8985
:1013000046E050E00E94400886E997E00E949B0674
:101310006C857D858E859F850E94CC078DE797E043
:101320000E949B06688D798D8A8D9B8D46E050E0EA
:101330000E94400884E697E00E949B066C8D7D8D9C
:101340008E8D9F8D46E050E00E9440088BE497E030
:101350000E949B0668A179A18AA19BA146E050E06A
:101360000E94400882E397E00E949B066CA17DA149
:101370008EA19FA146E050E00E94400889E197E0DD
:101380000E949B0668A579A58AA59BA546E050E02A
:101390000E94400880E097E00E949B066CA57DA516
:1013A0008EA59FA546E050E00E94400887EE96E09B
:1013B0000E949B0668A979A98AA99BA946E050E0EA
:1013C0000E9440088EEC96E00E949B066CA97DA9C5
:1013D0008EA99FA946E050E00E94400881EB96E06C
:1013E0000E949B0668AD79AD8AAD9BAD0E94CC078B
:1013F00083E996E00E949B066CAD7DAD8EAD9FADFE
:101400000E94CC0781E896E00E949B0660917602DC
:101410007091770280917802909179020E94CC07B6
:10142000DF91CF910C942807E6E3F2E08BE69EE78C
:10143000ACE5B2E4848B958BA68BB78B8AE593EFF2
:10144000A3EAB0E4808B918BA28BB38B88EB9BE0FB
:10145000A0E0B0E084839583A683B7838CEA9DE007
:10146000A0E0B0E080879187A287B38785E090E015
:10147000A0E0B0E084879587A687B78788E090E0F2
:10148000A0E0B0E080839183A283B38381E090E009
:10149000A0E0B0E080AF91AFA2AFB3AF84AF95AFA3
:1014A000A6AFB7AF84E590E0A0E8BFE3808F918F4F
:1014B000A28FB38F8CE59FE8A2E8BFE3848F958F5E
:1014C000A68FB78F8AE097EDA3E8BFE380A391A32F
:1014D000A2A3B3A388EB9EE1A5E8BFE384A395A3F1
:1014E000A6A3B7A386E696E6A6E8BFE380A791A7E2
:1014F000A2A7B3A784E19EEAA7E8BFE384A795A7C4
:10150000A6A7B7A783EC95EFA8E8BFE380AB91ABA4
:10151000A2ABB3AB81E79DE3AAE8BFE384AB95AB95
:10152000A6ABB7AB80E098E0A0E0B0E08093760295
:1015300090937702A0937802B093790285E696E0C3
:101540000E949B060C944A09CF92DF92EF92FF9281
:10155000CF93DF936C01990FEE08FF08F7FE1DC0D3
:101560006DE28FE193E00E944E06EC01662777273B
:10157000CB016C197D098E099F094AE00E948807FA
:10158000C80FD91F0E9428078C0F9D1FDF91CF9194
:10159000FF90EF90DF90CF9008954AE0C701B60129
:1015A0000E948807EC01EECFCF93DF930E940707DC
:1015B000EC0190933502809334028FE196E00E9413
:1015C0009B06CE01DF91CF910C94A40AAF92BF92FB
:1015D000CF92DF92EF92FF920F931F93CF93DF93FF
:1015E00000D01F92CDB7DEB724E4289F7001299F59
:1015F000F00C11248EE691E00E949B06C7010E9428
:10160000A40A8BEDC82E82E0D82E9FE1A92E93E08C
:10161000B92E8601C7018B5D92407C01C701800F06
:10162000911F0E94D416F80181938F01AE16BF0658
:10163000A9F719821A821B821C82CE0101960E9490
:101640008C05609336027093370280933802909332
:101650003902CE0101960E948C0560933A02709384
:101660003B0280933C0290933D02CE0101960E9482
:101670008C0560933E0270933F02809340029093EA
:101680004102CE0101960E948C0560934202709344
:1016900043028093440290934502CE0101960E943A
:1016A0007605BC01990F880B990B0E94B41520E0B8
:1016B00030E048EC52E40E94D217609346027093E7
:1016C00047028093480290934902CE0101960E94FE
:1016D0007605BC01990F880B990B0E94B41520E088
:1016E00030E048EC52E40E94D21760934A027093B3
:1016F0004B0280934C0290934D02CE0101960E94C2
:101700007605BC01990F880B990B0E94B41520E057
:1017100030E048EC52E40E94D21760934E0270937E
:101720004F028093500290935102CE0101960E9485
:101730007605BC01990F880B990B0E94B41520E027
:1017400030E048EC52E40E94D2176093520270934A
:1017500053028093540290935502CE0101960E9449
:101760007605BC01990F880B990B0E94B41520E0F7
:1017700030E048EC52E40E94D21760935602709316
:1017800057028093580290935902CE0101960E940D
:101790007605BC01990F880B990B0E94B41520E0C7
:1017A00030E048EC52E40E94D21760935A027093E2
:1017B0005B0280935C0290935D02CE0101960E94D1
:1017C0007605BC01990F880B990B0E94B41520E097
:1017D00030E048EC52E40E94D21760935E027093AE
:1017E0005F028093600290936102CE0101960E9495
:1017F0007605BC01990F880B990B0E94B41520E067
:1018000030E048EC52E40E94D21760936202709379
:1018100063028093640290936502CE0101960E9458
:101820007605BC01990F880B990B0E94B41520E036
:1018300030E048EC52E40E94D21760936602709345
:1018400067028093680290936902CE0101960E941C
:101850007605BC01990F880B990B0E94B41520E006
:1018600030E048EC52E40E94D21760936A02709311
:101870006B0280936C0290936D02CE0101960E94E0
:101880007605BC01990F880B990B0E94B41520E0D6
:1018900030E048EC52E40E94D2170E944B1860934B
:1018A0006E0270936F028093700290937102CE016A
:1018B00001960E947605BC01990F880B990B0E9436
:1018C000B41520E030E048EC52E40E94D2170E94A8
:1018D0004B1860937202709373028093740290931A
:1018E0007502CE0101960E947605092E000CAA0B06
:1018F000BB0B8093760290937702A0937802B0930B
:101900007902F60161916F0170E090E080E040E1C2
:101910000E948807C016D106A1F70E9428070E94DE
:101920004A0987E691E00E942C070F900F900F90D4
:101930000F90DF91CF911F910F91FF90EF90DF906B
:10194000CF90BF90AF9008950E9407070C94E60ACD
:10195000AF92BF92CF92DF92EF92FF920F931F93BD
:10196000CF93DF9300D01F92CDB7DEB70E94070759
:1019700024E4289F8001299F100D112487E596E01B
:101980000E949B064AE064E470E080E090E00E94E0
:1019900088078FE496E00E949B0681E496E00E940F
:1019A0009B06C8010E94A40A0E94280719821A8275
:1019B0001B821C826091360270913702809138023E
:1019C00090913902AE014F5F5F4F0E9421056091F7
:1019D0003A0270913B0280913C0290913D02AE012F
:1019E0004F5F5F4F0E94210560913E0270913F0260
:1019F0008091400290914102AE014F5F5F4F0E9483
:101A000021056091420270914302809144029091BD
:101A10004502AE014F5F5F4F0E94210520E030E09C
:101A200048EC52E46091460270914702809148026E
:101A3000909149020E9413160E944418CB01BE01E6
:101A40006F5F7F4F0E94F70420E030E048EC52E4E3
:101A500060914A0270914B0280914C0290914D022C
:101A60000E9413160E944418CB01BE016F5F7F4F86
:101A70000E94F70420E030E048EC52E460914E020E
:101A800070914F0280915002909151020E94131662
:101A90000E944418CB01BE016F5F7F4F0E94F70484
:101AA00020E030E048EC52E4609152027091530221
:101AB00080915402909155020E9413160E9444187E
:101AC000CB01BE016F5F7F4F0E94F70420E030E042
:101AD00048EC52E46091560270915702809158028E
:101AE000909159020E9413160E944418CB01BE0126
:101AF0006F5F7F4F0E94F70420E030E048EC52E433
:101B000060915A0270915B0280915C0290915D023B
:101B10000E9413160E944418CB01BE016F5F7F4FD5
:101B20000E94F70420E030E048EC52E460915E024D
:101B300070915F0280916002909161020E94131681
:101B40000E944418CB01BE016F5F7F4F0E94F704D3
:101B500020E030E048EC52E4609162027091630250
:101B600080916402909165020E9413160E944418AD
:101B7000CB01BE016F5F7F4F0E94F70420E030E091
:101B800048EC52E4609166027091670280916802AD
:101B9000909169020E9413160E944418CB01BE0165
:101BA0006F5F7F4F0E94F70420E030E048EC52E482
:101BB00060916A0270916B0280916C0290916D024B
:101BC0000E9413160E944418CB01BE016F5F7F4F25
:101BD0000E94F70460916E0270916F028091700212
:101BE000909171020E94B21520E030E048EC52E47E
:101BF0000E9413160E944418CB01BE016F5F7F4FF5
:101C00000E94F704609172027091730280917402D5
:101C1000909175020E94B21520E030E048EC52E449
:101C20000E9413160E944418CB01BE016F5F7F4FC4
:101C30000E94F704BE016F5F7F4F80917602909102
:101C400077020E94F7049BEDC92E92E0D92E56012F
:101C5000F12CE12CF50161915F01C8018E0D9F1DF2
:101C60000E94DC16FFEFEF1AFF0A84E4E816F10485
:101C700089F78BEDE82E82E0F82E0B5D1240C8014B
:101C80008E0D9F1D0E94D416F70181937F01FFE105
:101C9000EF16F3E0FF0699F7F60161916F0170E02E
:101CA00090E080E040E10E948807FFE1CF16F3E07A
:101CB000DF0691F78AE396E00E942C070F900F90C1
:101CC0000F900F90DF91CF911F910F91FF90EF90A8
:101CD000DF90CF90BF90AF900895CF92DF92EF92B8
:101CE000FF92CF93DF930E940707EC010E94A604A6
:101CF0008823D9F181E0809306068093070670E07F
:101D000060E080910806909109060E940814CC0FAB
:101D1000DD1FCC0FDD1FC25BDD4F688379838A83B3
:101D20009B83CEE4D2E080E090E0DC016C017D0199
:101D30002FEFC21AD20AE20AF20A409136025091FB
:101D40003702609138027091390284179507A6070F
:101D5000B70788F4699179918991999146E050E0AB
:101D60000E944008D701C601E1CF1092070660E04B
:101D700070E0CB01CCCF89EF95E0DF91CF91FF9060
:101D8000EF90DF90CF900C942C071F920F920FB61C
:101D90000F9211242F933F938F939F93AF93BF93F1
:101DA0008091D7029091D802A091D902B091DA0225
:101DB0003091D60223E0230F2D3758F50196A11D4F
:101DC000B11D2093D6028093D7029093D802A0939E
:101DD000D902B093DA028091D2029091D302A091FD
:101DE000D402B091D5020196A11DB11D8093D202FB
:101DF0009093D302A093D402B093D502BF91AF9138
:101E00009F918F913F912F910F900FBE0F901F9038
:101E1000189526E8230F0296A11DB11DD2CF1F925F
:101E20000F920FB60F9211240BB60F922F933F9380
:101E30004F935F936F937F938F939F93AF93BF93D2
:101E4000EF93FF938FE193E00E942C06FF91EF91B7
:101E5000BF91AF919F918F917F916F915F914F91C2
:101E60003F912F910F900BBE0F900FBE0F901F90C0
:101E700018951F920F920FB60F9211240BB60F9266
:101E80002F938F939F93EF93FF93E0912F03F09104
:101E900030038081E0913503F091360382FD1DC04F
:101EA0009081809138038F5F8F732091390382175F
:101EB00041F0E0913803F0E0E15EFC4F958F8093B4
:101EC0003803FF91EF919F918F912F910F900BBE4F
:101ED0000F900FBE0F901F9018958081F2CF109237
:101EE00022031092210388EE93E0A0E0B0E08093FB
:101EF000230390932403A0932503B093260388E043
:101F000092E09093200380931F0385EC90E09093E0
:101F10002C0380932B0384EC90E090932E0380930A
:101F20002D0380EC90E09093300380932F0381EC9D
:101F300090E0909332038093310382EC90E0909391
:101F400034038093330386EC90E0909336038093C0
:101F50003503109238031092390310923A0310920D
:101F60003B0310921306109212068FE193E09093B8
:101F70000E0680930D061092C4038CE28093100627
:101F80008BE380930F068FE28093110680E48093A9
:101F9000BF038FE38093C0031092BE031092090623
:101FA0001092080610920B0610920A0681E08093A8
:101FB0000606E4E1F6E01192119286E0E837F807B0
:101FC000D1F71092C3030895789484B5826084BDDC
:101FD00084B5816084BD85B5826085BD85B581602D
:101FE00085BD80916E00816080936E0010928100AB
:101FF0008091810082608093810080918100816066
:102000008093810080918000816080938000809126
:10201000B10084608093B1008091B00081608093B2
:10202000B000809191008260809391008091910036
:1020300081608093910080919000816080939000F6
:102040008091A10082608093A1008091A1008160B5
:102050008093A1008091A00081608093A000809176
:102060002101826080932101809121018160809310
:1020700021018091200181608093200180917A006C
:10208000846080937A0080917A00826080937A00E5
:1020900080917A00816080937A0080917A008068D4
:1020A00080937A001092C100E0912F03F0913003E9
:1020B00082E08083E0912B03F0912C031082E09169
:1020C0002D03F0912E0380E1808310923703E0917D
:1020D0003303F091340386E08083E0913103F09183
:1020E0003203808180618083E0913103F09132037B
:1020F000808188608083E0913103F0913203808198
:1021000080688083E0913103F091320380818F7D7C
:10211000808381E08093C40388E397E09093150661
:102120008093140684ED9AE0909317068093160628
:102130008FE198E0909319068093180689ED97E057
:1021400090931B0680931A0680E199E090931D06F8
:1021500080931C068DE69EE090931F0680931E06DA
:1021600088EA9CE0909321068093200684EA9CE014
:10217000909323068093220684E19AE090932506AB
:10218000809324068AE499E090932706809326069C
:1021900081E090E0909335028093340280E098E0F3
:1021A000A0E0B0E080937E0290937F02A093800233
:1021B000B093810290E080E00E94E60A85E292E01E
:1021C0000E941B070E94280711E0F12CE12C80904F
:1021D000760290907702A0907802B0907902C701C1
:1021E000B0E0A0E088159905AA05BB05F0F5CAE79F
:1021F000D2E080E090E0DC014C015D01EFEF8E1A4F
:102200009E0AAE0ABE0A24964091360250913702C9
:10221000609138027091390284179507A607B707B5
:1022200008F04FC00E94B01326E430E040E050E0D8
:102230000E94EA169B01AC012658324F4F4F5F4F68
:10224000C501B4010E944D174C805D806E807F8077
:10225000DC01CB01840D951DA61DB71D8C839D83CC
:10226000AE83BF83D501C401C7CF409036025090E2
:102270003702609038027090390262014AE7E42E1A
:1022800042E0F42ED0E0C0E02FEF821A920AA20AB8
:10229000B20A24E0E20EF11CCC15DD05B1F0D70145
:1022A00014966D917D918D919C911797A501940144
:1022B0000E941C17F7012483358346835783219698
:1022C000E8CFFFEFEF1AFF0A82CFCC0FDD1FCC0F54
:1022D000DD1FC658DD4F8AE792E08C179D0791F00D
:1022E00088859985AA85BB854C815D816E817F81BA
:1022F000841B950BA60BB70B88A799A7AAA7BBA70A
:102300002497E9CF8091820290918302A091840268
:10231000B09185028093A2029093A302A093A4029D
:10232000B093A50290E080E0AC0170E060E044155D
:1023300055056605770510F40196F6CF80913402B5
:1023400090913502892B09F4DDC08AE898E00E945B
:102350002C078FE698E00E942C078FE598E00E94FA
:102360009B064AE064E470E080E090E00E94880709
:102370000E94280782E598E00E949B066091760201
:102380007091770280917802909179020E94CC0737
:10239000C2EAD2E07E0160E070E0CB0140903602FC
:1023A0005090370260903802709039024B015C0106
:1023B000AFEF8A1A9A0AAA0ABA0A64157505860541
:1023C0009705B8F0E2EAF2E090E080E0C12CD12C71
:1023D000760148165906F9F0419151916191719138
:1023E000C416D506E606F70610F46A017B010196CD
:1023F000F0CF4AE00E94880780E392E00E941B072A
:10240000F70161917191819191917F010E94CC07B7
:10241000C501B401C3CF4601570130E020E0821767
:10242000930771F04991599169917991481559052E
:102430006A057B0510F44A015B012F5F3F4FEFCF28
:10244000412C512C3201C814D904EA04FB0431F0A8
:1024500026013701481859086A087B0840913E0256
:1024600050913F02609140027091410280913A0286
:1024700090913B02A0913C02B0913D0288159905D4
:10248000AA05BB0508F000C181E000E0D0E0C0E093
:10249000C416D506E606F70608F080E0382E8091CF
:1024A000420290914302A0914402B0914502481625
:1024B00059066A067B0620F0312C00E0D0E0C0E02F
:1024C00085E498E00E949B06C501B4010E94CC07F8
:1024D00087E398E00E949B06C701B6010E94CC07E3
:1024E0008CE298E00E949B06C301B2010E94CC07D7
:1024F00084E298E00E949B06632D702F8D2F9C2F05
:102500000E94CC078091C3038111D4C080910D0635
:1025100090910E06DC01ED91FC910084F185E02D97
:102520001995892B09F4C6C080910D0690910E066D
:10253000DC01ED91FC910084F185E02D1995C12C11
:1025400022E0D22E8115924064F480910D06909184
:102550000E06DC01ED91FC910084F185E02D1995CA
:102560006C01C0910D06D0910E0695E0A92E94E065
:10257000B92E4501F12CE12CCE14DF04A1F12FB7C7
:10258000F8948091D7029091D802A091D902B0918D
:10259000DA022FBF88879987AA87BB87E881F981EC
:1025A0000284F385E02DCE01199597FF86C02FB7E1
:1025B000F8948091D7029091D802A091D902B0915D
:1025C000DA022FBF488559856A857B85841B950B68
:1025D000A60BB70B4C815D816E817F8184179507B7
:1025E000A607B707D8F2D0E0C0E0CC16DD0609F4A4
:1025F00089CFF50191915F01109205063091110686
:102600002091C2039093C203931304C0921302C09B
:102610001092C2038091BE03E82FF0E040910F06B4
:10262000E454FC4F941335C0321799F11186882376
:1026300021F0109305061092C2031092BE0310926F
:1026400009061092080610920B0610920A061093C3
:10265000060680910506813059F50E940707809390
:10266000BD038233F8F4209107062223D9F0FC0140
:10267000FF27EE0FFF1FEC5EF94F0190F081E02D78
:10268000309781F0199514C0312C00E0D0E0C0E003
:1026900006CF91878F5F8093BE039091C003891707
:1026A00060F6D7CFE0911206F0911306309751F7FC
:1026B00021969BCF0E94D60688CDD4018D934D01E3
:1026C000BFEFEB1AFB0A58CF8F929F92AF92BF9247
:1026D000CF92DF92EF92FF92CF93DF93EC0168816C
:1026E00079818A819B81611571058105910521F4AC
:1026F00064E279ED8BE597E02DE133EF41E050E0C6
:102700000E94EA1649015A019B01AC01A7EAB1E413
:102710000E9409176B017C01ACEEB4EFA501940196
:102720000E941717C60ED71EE81EF91EF7FE06C038
:1027300081E0C81AD108E10880E8F80AC882D98285
:10274000EA82FB82C701B6019F77DF91CF91FF90AC
:10275000EF90DF90CF90BF90AF909F908F900895B3
:102760008F929F92AF92BF92CF92DF92EF92FF92A1
:102770006091000270910102809102029091030227
:10278000611571058105910521F464E279ED8BE510
:1027900097E02DE133EF41E050E00E94EA16490155
:1027A0005A019B01AC01A7EAB1E40E9409176B0131
:1027B0007C01ACEEB4EFA50194010E941717C60E80
:1027C000D71EE81EF91EF7FE06C081E0C81AD10820
:1027D000E10880E8F80AC0920002D0920102E0927B
:1027E0000202F0920302C701B6019F77FF90EF90BB
:1027F000DF90CF90BF90AF909F908F90089560939F
:1028000000027093010280930202909303020895E4
:102810008F929F92AF92BF92CF92DF92EF92FF92F0
:102820000F931F93CF93DF935C017B0161157105BB
:1028300019F0DB018D939C9385010F5F1F4FF5010C
:10284000D0818D2F90E00E9484156C01892BB9F501
:10285000DD32B9F50F5F1F4FD5011196DC91C1E054
:102860005801F1E0AF1AB10843E050E064E371E0D1
:10287000C5010E948D15892B69F5680182E0C80E9B
:10288000D11C45E050E06FE271E0C6010E948D1559
:10289000892B21F4680197E0C90ED11CE114F104E1
:1028A00019F0D701CD92DC9260E070E080E89FEFF4
:1028B000C111FFC060E070E080E89FE7FAC05801F6
:1028C000BBCFDB3229F485010E5F1F4FF501D181AB
:1028D000C0E0C6CF43E050E06CE271E0C5010E9469
:1028E0008D15892BE9F0F80110E000E020E030E0E0
:1028F000A9015F01B0ED8B2E8D0E89E08815C8F11E
:102900009C2E689491F88C2F8870C2FF16C081119C
:1029100002C00F5F1F4F3196D501DC91C92DE9CF61
:10292000E114F10429F00E5F1F4FF70111830083BA
:1029300060E070E080EC9FE7BCC0882311F001509C
:102940001109A5E0B0E00E9409179B01AC01220F1C
:10295000331F441F551F280D311D411D511D28399E
:1029600099E93907490799E15907A8F2C6609C2EF1
:10297000D2CFAEEF8A1206C0C3FD3CC09C2E689435
:1029800093F8C9CFDF7DD534A9F580818D3239F434
:10299000C061DF011296818162E070E006C0DF0154
:1029A0008B32C1F3119661E070E080535D01A61A8D
:1029B000B70A8A30F8F4E0E8CE16ECE0DE065CF404
:1029C000B601660F771F660F771FC60ED71ECC0C99
:1029D000DD1CC80ED11C5D01FFEFAF1ABF0A8C9140
:1029E00080538A30A8F1C4FF03C0D194C194D108A8
:1029F0000C0D1D1DC1FF09C0E114F10431F081E08F
:102A0000A81AB108D701AD92BC92CA01B9010E94BF
:102A1000B215C370C33009F490584B015C0120E03B
:102A200030E0A9010E94AD15882309F440C0C3E637
:102A3000D1E017FF05C0119501951109CBE4D1E054
:102A40006E01B8E1CB1AD10880E2E82EF12C0FC05C
:102A5000D501B1CFFE0125913591459154910E19C3
:102A60001F09C501B4010E9413164B015C01D50179
:102A7000C4010E151F0574F72497F594E794CC163E
:102A8000DD06A9F78A2F880F8B2F881F8F3F49F00B
:102A900020E030E0A901C501B4010E94AD1581110B
:102AA00006C082E290E09093790680937806C50193
:102AB000B401DF91CF911F910F91FF90EF90DF90C4
:102AC000CF90BF90AF909F908F900895FC01882782
:102AD0009927E89421912032E9F3293010F02E3023
:102AE000C8F32B3241F02D3239F4689404C00E94AF
:102AF000A515820F911D219120532A30C0F31EF499
:102B0000909581959F4F089591110C948016803275
:102B100019F089508550C8F70895FB01DC01415038
:102B2000504088F08D9181341CF08B350CF4805E20
:102B3000659161341CF06B350CF4605E861B61118D
:102B400071F3990B0895881BFCCF7AE0979F902D25
:102B5000879F802D910D112408950E94EF1508F490
:102B600081E00895E89409C097FB3EF49095809524
:102B7000709561957F4F8F4F9F4F9923A9F0F92F43
:102B800096E9BB279395F695879577956795B795C1
:102B9000F111F8CFFAF4BB0F11F460FF1BC06F5FA7
:102BA0007F4F8F4F9F4F16C0882311F096E911C0B9
:102BB000772321F09EE8872F762F05C0662371F0DA
:102BC00096E8862F70E060E02AF09A95660F771FEE
:102BD000881FDAF7880F9695879597F90895990FCA
:102BE0000008550FAA0BE0E8FEEF16161706E807D7
:102BF000F907C0F012161306E407F50798F0621BF8
:102C0000730B840B950B39F40A2661F0232B242BCC
:102C1000252B21F408950A2609F4A140A6958FEFEB
:102C2000811D811D08950E9426160C949A160E94FB
:102C30008C1638F00E94931620F0952311F00C9416
:102C400083160C94891611240C94CE160E94AB1690
:102C500070F3959FC1F3950F50E0551F629FF001EF
:102C6000729FBB27F00DB11D639FAA27F00DB11D08
:102C7000AA1F649F6627B00DA11D661F829F222791
:102C8000B00DA11D621F739FB00DA11D621F839F18
:102C9000A00D611D221F749F3327A00D611D231FEE
:102CA000849F600D211D822F762F6A2F11249F573C
:102CB00050409AF0F1F088234AF0EE0FFF1FBB1F3F
:102CC000661F771F881F91505040A9F79E3F5105FE
:102CD00080F00C9483160C94CE165F3FE4F3983E7C
:102CE000D4F3869577956795B795F795E7959F5FA8
:102CF000C1F7FE2B880F911D9695879597F908953A
:102D000099278827089597F99F6780E870E060E029
:102D100008959FEF80EC089500240A941616170674
:102D200018060906089500240A94121613061406BC
:102D300005060895092E0394000C11F4882352F01F
:102D4000BB0F40F4BF2B11F460FF04C06F5F7F4FD7
:102D50008F4F9F4F089557FD9058440F551F59F0BE
:102D60005F3F71F04795880F97FB991F61F09F3F78
:102D700079F087950895121613061406551FF2CFA1
:102D80004695F1DF08C0161617061806991FF1CFF1
:102D900086957105610508940895E894BB27662718
:102DA0007727CB0197F90895F999FECF92BD81BDA0
:102DB000F89A992780B50895262FF999FECF1FBA62
:102DC00092BD81BD20BD0FB6F894FA9AF99A0FBE54
:102DD00001960895052E97FB1EF400940E9401179A
:102DE00057FD07D00E941C1707FC03D04EF40C942B
:102DF000011750954095309521953F4F4F4F5F4FAC
:102E0000089590958095709561957F4F8F4F9F4F56
:102E100008950E943E17A59F900DB49F900DA49F0A
:102E2000800D911D11240895B7FF0C9409170E947D
:102E30000917821B930B0895A1E21A2EAA1BBB1B34
:102E4000FD010DC0AA1FBB1FEE1FFF1FA217B30776
:102E5000E407F50720F0A21BB30BE40BF50B661F8C
:102E6000771F881F991F1A9469F760957095809550
:102E700090959B01AC01BD01CF010895A29FB001C7
:102E8000B39FC001A39F700D811D1124911DB29F9E
:102E9000700D811D1124911D0895DB018F939F9367
:102EA0000E940917BF91AF91A29F800D911DA39F12
:102EB000900DB29F900D11240895EE0FFF1F881FF3
:102EC0008BBF0790F691E02D19945058BB27AA2785
:102ED0000E947D170C949A160E948C1638F00E945E
:102EE000931620F039F49F3F19F426F40C948916B8
:102EF0000EF4E095E7FB0C948316E92F0E94AB16C5
:102F000058F3BA17620773078407950720F079F41E
:102F1000A6F50C94CD160EF4E0950B2EBA2FA02D2D
:102F20000B01B90190010C01CA01A0011124FF2776
:102F3000591B99F0593F50F4503E68F11A16F04071
:102F4000A22F232F342F4427585FF3CF4695379570
:102F50002795A795F0405395C9F77EF41F16BA0B35
:102F6000620B730B840BBAF09150A1F0FF0FBB1FE3
:102F7000661F771F881FC2F70EC0BA0F621F731F2C
:102F8000841F48F4879577956795B795F7959E3F89
:102F900008F0B0CF9395880F08F09927EE0F97951A
:102FA000879508950E94E6170C949A160E9493162E
:102FB00058F00E948C1640F029F45F3F29F00C94E1
:102FC000831651110C94CE160C9489160E94AB16E0
:102FD00068F39923B1F3552391F3951B550BBB2748
:102FE000AA2762177307840738F09F5F5F4F220F8D
:102FF000331F441FAA1FA9F335D00E2E3AF0E0E884
:1030000032D091505040E695001CCAF72BD0FE2FCD
:1030100029D0660F771F881FBB1F26173707480761
:10302000AB07B0E809F0BB0B802DBF01FF27935819
:103030005F4F3AF09E3F510578F00C9483160C9444
:10304000CE165F3FE4F3983ED4F386957795679567
:10305000B795F7959F5FC9F7880F911D969587954E
:1030600097F90895E1E0660F771F881FBB1F62176D
:1030700073078407BA0720F0621B730B840BBA0B2B
:10308000EE1F88F7E09508950E944B186894B111DF
:103090000C94CE1608950E94B31688F09F5798F0AE
:1030A000B92F9927B751B0F0E1F0660F771F881F4D
:1030B000991F1AF0BA95C9F714C0B13091F00E9467
:1030C000CD16B1E008950C94CD16672F782F882780
:1030D000B85F39F0B93FCCF3869577956795B3958E
:1030E000D9F73EF490958095709561957F4F8F4FFD
:1030F0009F4F08950E94EF1508F48FEF08950E94E6
:0C310000EF15880B990B0895F894FFCF91
:10310C0001000000000000004E06B805E505B606FB
:10311C001606F40508060D0A006E616E00696E66EF
:10312C00006F766600736574757020646F6E650051
:04313C003A0900004C
:00000001FF
